:020000040800F2
:100000005004002045010008090700089104000879
:1000100005070008530200084F1500080000000003
:10002000000000000000000000000000910C00082B
:100030005702000800000000FD090008A50D000897
:100040005F0100085F0100085F0100085F01000810
:100050005F0100085F0100085F0100085F01000800
:100060005F0100085F0100085F0100085F010008F0
:100070005F0100085F0100085F0100085F010008E0
:100080005F0100085F0100085F0100085F010008D0
:100090005F0100085F0100085F0100085F010008C0
:1000A0005F0100085F0100085F0100085F010008B0
:1000B0005F0100085F0100085F0100085F010008A0
:1000C0005F0100085F0100085F0100085F01000890
:1000D0005F010008811200085F0100085F0100084D
:1000E0005F0100085F0100085F0100085F01000870
:1000F0005F0100085F0100085F0100085F01000860
:100100005F0100085F0100085F0100085F0100084F
:100110005F0100085F0100085F0100085F0100083F
:100120005F0100085F0100085F0100085F0100082F
:10013000DFF80CD000F05CF800480047D518000844
:10014000500400200648804706480047FEE7FEE7C7
:10015000FEE7FEE7FEE7FEE7FEE7FEE7FEE7FEE777
:10016000E50D000831010008D2B201E000F8012BD2
:10017000491EFBD270470022F6E710B513460A4627
:1001800004461946FFF7F0FF204610BD2DE9F05F49
:100190000546002092469B468846064681464024F6
:1001A0001BE0284641464746224600F042F85346A7
:1001B0005A46C01A914110D311461846224600F003
:1001C00029F82D1A67EB01084F462246012000212D
:1001D00000F020F817EB00094E41201EA4F10104A5
:1001E000DFDC484631462A464346BDE8F09F000022
:1001F000064C074D06E0E06840F0010394E8070074
:1002000098471034AC42F6D3FFF796FF1019000858
:1002100030190008202A04DB203A00FA02F10020FD
:1002200070479140C2F1200320FA03F31943904034
:100230007047202A04DB203A21FA02F0002170479F
:1002400021FA02F3D040C2F120029140084319463E
:10025000704700BFFEE7704751B18200A2F1C04273
:10026000126842F001038200A2F1C042136009E06B
:100270008200A2F1C0421268034B1A408300A3F12E
:10028000C0431A6070470000FEFF0F00D0E9011262
:100290001143C268114302691143426911438269E3
:1002A0001143C2691143026A1143426A1143826ACF
:1002B0001143C26A1143026B114302689200A2F11A
:1002C000C0421160816808290BD101688900A1F141
:1002D000C041096841F0400201688900A1F1C041B4
:1002E0000A60416B0968426B526841EA0211426B35
:1002F000926841EA0221426B928941EA0241426BD3
:10030000128A41EA0251426B127D41EA0261426B5C
:10031000926911430268521C9200A2F1C04211601E
:10032000C16AB1F5804F1BD1816B0968826B52683D
:1003300041EA0211826B926841EA0221826B128AC1
:1003400041EA0251826B127D41EA0261826B92693D
:10035000114302689200A2F1C042C2F8041107E002
:100360006FF0704201688900A1F1C041C1F8042119
:1003700070472DE9F04102460025002600200023A9
:100380000024002791F803C00CF00F0591F803C07A
:100390000CF0100CBCF1000F03D091F802C04CEA35
:1003A000050591F800C0BCF1000F31D014680020A1
:1003B0002BE04FF0010C0CFA00F3B1F800C00CEA8E
:1003C00003069E4220D183004FF00F0C0CFA03F776
:1003D000BC4305FA03FC4CEA040491F803C0BCF1E9
:1003E000280F06D14FF0010C0CFA00FCC2F814C023
:1003F0000AE091F803C0BCF1480F05D14FF0010CA1
:100400000CFA00FCC2F810C0401C0828D1D31460BC
:10041000B1F800C0BCF1FF0F34DD546800202EE0BD
:1004200000F1080C4FF0010808FA0CF3B1F800C015
:100430000CEA03069E4221D183004FF00F0C0CFA08
:1004400003F7BC4305FA03FC4CEA040491F803C02B
:10045000BCF1280F05D100F1080C08FA0CF8C2F81D
:10046000148091F803C0BCF1480F07D100F1080CCB
:100470004FF0010808FA0CF8C2F81080401C082858
:10048000CED35460BDE8F08141617047016170478F
:1004900000BFFEE708B50121442000F0D1FA012099
:1004A000ADF8000028208DF8030003208DF802002D
:1004B00069460848FFF75DFF1C20ADF800004820A2
:1004C0008DF8030003208DF8020069460248FFF70B
:1004D00050FF08BD000801400018014070B50646F5
:1004E0000F484088401E83B20D480088401E82B2EB
:1004F0000021084600F064F800240CE0002504E028
:10050000304600F0D5F8681C85B205484088A842FE
:10051000F6DC601C84B202480088A042EEDC70BDAC
:100520001800002000B50346B3B9012000F0ACF874
:100530004FF4807000F0B2F8032000F0A5F841F20B
:10054000300000F0ABF84FF4C8700E494880F0203E
:1005500008800020887114E0012000F095F8002048
:1005600000F09CF8032000F08FF841F2380000F012
:1005700095F8F020034948804FF4C87008800120A6
:10058000887100BD1800002010B501460023CA0A7A
:10059000C1F3451401F01F03500340EA841040EA00
:1005A000430010BD0549098848104FF6FF7101EA64
:1005B00000200249098840EA610070470008006C89
:1005C00070B506460C4615462E48807950BB4FF450
:1005D000047000F059F8304600F060F840F2112045
:1005E00000F052F8284600F059F840F2122000F0CE
:1005F0004BF8204600F052F840F2132000F044F887
:10060000184600F04BF84FF4007000F03DF830460B
:1006100000F044F840F2012000F036F8204600F0E7
:100620003DF829E040F2122000F02EF8304600F0AC
:1006300035F840F2132000F027F8284600F02EF895
:100640004FF4047000F020F8204600F027F840F244
:10065000112000F019F8184600F020F840F20120AF
:1006600000F012F8304600F019F84FF4007000F076
:100670000BF8204600F012F840F2022000F004F8D7
:1006800070BD00001800002001124900024A1180CC
:100690000106C90D11807047FE07006C0112490068
:1006A000024A11800106C90D118070470008006CD4
:1006B00030B5054600242846FFF766FF0446C4F31C
:1006C0004F20024908800C8030BD00000008006CFB
:1006D00008B50121102000F0B3F9FF20ADF80000AB
:1006E00010208DF8030003208DF8020069460448AD
:1006F000FFF73FFEFF210248FFF7C8FE08BD0000DC
:100700000010014000BFFEE77047000000B587B051
:100710000121A82000F094F94FF40050ADF8180022
:1007200010208DF81B0003208DF81A0006A931480F
:10073000FFF71FFE4FF400512E48FFF7A7FE4FF4BE
:100740008050ADF8180006A92B48FFF712FE4FF4B1
:1007500080512948FFF79AFE4FF44070ADF8180019
:1007600006A92648FFF705FE4FF440712348FFF71E
:100770008BFE0820ADF8180028208DF81B0006A974
:100780001F48FFF7F6FD08211D48FFF77DFE00F02A
:10079000D1F900211B4800F043FA0020ADF8040015
:1007A0004FF48270ADF806000020ADF80800ADF8F7
:1007B0000A00ADF80C004FF40070ADF80E001820E0
:1007C000ADF810000020ADF812000720ADF81400BD
:1007D00001A90C4800F03EFA01210A4800F020FA75
:1007E00000200949086001200849C1F8A40107B0A8
:1007F00000BD000000200140000C0140001C014031
:100800000014014000380040A081234200802342B0
:1008100070B50446002007490860204600F0D0F972
:10082000FF2000F0CDF9054601200349C1F8A401DD
:10083000284670BDA48123420080234210B50020C9
:100840001449086005221449302000F05FF80522A1
:1008500012492A2000F05AF80121212000F074F8F2
:100860000121222000F070F81A21242000F06CF8F9
:100870002821252000F068F80F21262000F064F8D8
:100880000E21202000F060F801200549C1F8A001E8
:1008900010BD0000A0812342061900080B190008B2
:1008A0000080234270B50546082000F0A5F900201D
:1008B0001349086020222946A02000F027F80120D3
:1008C0001049C1F8A00100BF0F4800680028FBD103
:1008D0000720FFF79DFF04462146272000F034F84B
:1008E00004F0100028B1FF21E12000F02DF81020C5
:1008F00070BD04F0200008B12020F9E7FF20F7E7E1
:10090000A0812342008023420C8122422DE9F04144
:1009100007460C46154600200A490860384600F094
:100920004FF98046002605E014F8010B00F048F965
:10093000701CC6B2AE42F7DB012002490860404697
:10094000BDE8F081A481234270B505460C46002025
:1009500007490860284600F033F90646204600F0B3
:100960002FF901200349C1F8A401304670BD0000F1
:10097000A48123420080234270B5002100230F226E
:10098000C47804B3154C246804F4E064C4F5E0644E
:10099000210AC1F10403CA40447804FA03F18478BF
:1009A0001440214309010E4C0678A155047804F047
:1009B0001F050124AC4005786D11AD0005F1E0255F
:1009C000C5F8004109E0047804F01F050124AC409B
:1009D000044D0678761145F8264070BD0CED00E018
:1009E00000E400E080E100E002490143024A1160B6
:1009F000704700000000FA050CED00E070470000B1
:100A000029B1064A52690243044B5A6104E0034A81
:100A100052698243014B5A61704700000010024046
:100A200029B1064AD2690243044BDA6104E0034A61
:100A3000D2698243014BDA61704700000010024026
:100A400029B1064A92690243044B9A6104E0034AC1
:100A500092698243014B9A61704700000010024086
:100A600030B500210022002400232D4D6D6805F0D3
:100A70000C0121B1042905D0082923D105E0294D15
:100A8000056022E0274D05601FE0254D6D6805F4E7
:100A90007012234D6D6805F48034022505EB9242F7
:100AA0001CB9214D554305600BE01D4D6D6805F4E3
:100AB00000351DB11C4D5543056002E0194D5543ED
:100AC000056002E0174D056000BF00BF144D6D6862
:100AD00005F0F0010909154D6B5C0568DD404560C6
:100AE0000F4D6D6805F4E061090A104D6B5C4568B7
:100AF000DD4085600A4D6D6805F46051C90A0B4DF3
:100B00006B5C4568DD40C560054D6D6805F440418E
:100B1000890B074D6B5CC568B5FBF3F5056130BD0E
:100B20000010024000127A0000093D000000002081
:100B30001000002000B587B001210820FFF780FFDA
:100B400001218803FFF76CFF4FF46040ADF81800F7
:100B500018208DF81B0003208DF81A0006A91648EE
:100B6000FFF707FC0020ADF804004FF48270ADF8E9
:100B700006000020ADF808000220ADF80A000120B0
:100B8000ADF80C004002ADF80E003820ADF81000B2
:100B90000020ADF812000720ADF8140001A90748A5
:100BA00000F058F80121054800F03AF8FF2000F065
:100BB00007F807B000BD0000000C014000380040FD
:100BC00010B5044600BF02210A4800F035F800289D
:100BD000F9D02146074800F03BF800BF0121054845
:100BE00000F02AF80028F9D0024800F02EF8C0B230
:100BF00010BD00000038004010B5044607480088CA
:100C00004FF6C77108400549088008460088204310
:100C100008800121014800F003F810BD00380040B1
:100C200021B1028842F04002028004E002884FF6BF
:100C3000BF731A40028070470246002013890B40A0
:100C40000BB1012000E00020704701468889704701
:100C50008181704710B50022028802F441520B884E
:100C60004C8823438C882343CC8823430C8923431B
:100C70004C8923438C892343CC8923431A43028024
:100C8000838B4FF2FF74234083830B8A038210BD52
:100C9000704710B500F002F810BD00000CB5002040
:100CA000019000903348006840F48030314908607A
:100CB00000BF3048006800F4003000900198401CEC
:100CC0000190009818B90198B0F5A06FF1D12948AA
:100CD000006800F4003010B10120009001E0002015
:100CE00000900098012843D12348006840F010008C
:100CF000214908600846006820F0030008600846A3
:100D0000006840F0020008601A48406819494860CD
:100D10000846406848600846406840F48060486083
:100D20000846406820F47C1048600846406840F45B
:100D3000E81048600846006840F08070086000BF16
:100D40000C48006800F000700028F9D0094840689D
:100D500020F00300074948600846406840F0020060
:100D6000486000BF0348406800F00C000828F9D133
:100D70000CBD00000010024000200240042808D1F1
:100D80004FF0E021096941F004014FF0E0221161C8
:100D900007E04FF0E021096921F004014FF0E02263
:100DA000116170477047000010B504466FF00400F1
:100DB000FFF7E4FFE11704EB5171C1F3C701074AE4
:100DC00011701046007800EB4001C1EBC0104FF6E7
:100DD000FF7101EAC0000249088010BD2000002018
:100DE0002200002010B51348006840F001001149AE
:100DF000086008464068104908400E4948600846A7
:100E000000680E4908400B4908600846006820F455
:100E1000802008600846406820F4FE0048604FF4D7
:100E20001F008860FFF735FF4FF00060044908603D
:100E300010BD0000001002400000FFF8FFFFF6FEAA
:100E400008ED00E000B59DB001210802FFF7D8FDD4
:100E500001200790002008900F20099000200A90A0
:100E60000B900C900D9015200090019005200290A1
:100E70000020039004900590069006200E9000201C
:100E80000F90109010201190002012901490139049
:100E9000159016904FF480501790002018904FF442
:100EA0008040199000201A9007A81B90CDF870D0B0
:100EB0000EA8FFF7EBF901210620FFF7CDF91DB0D1
:100EC00000BD000008B501214FF4B070FFF7B8FD78
:100ED0004CF23370ADF8000018208DF803000320A9
:100EE0008DF8020069461048FFF743FA4FF680700C
:100EF000ADF8000018208DF8030003208DF80200E3
:100F000069460A48FFF735FA41F20100ADF80000E2
:100F100018208DF8030003208DF80200694604486C
:100F2000FFF727FA08BD0000001401400018014037
:100F30000020014010B5FFF7C5FFFFF783FF322007
:100F400000F090FC0020FFF79FFBFFF72BFBC74949
:100F5000888008468188C6A000F0FCFA0020FFF7D0
:100F600093FB0020FFF790FB0A2000F07BFC0020A1
:100F7000FFF78AFB0020FFF787FB0020FFF784FBC9
:100F80000020FFF781FBA420FFF77EFB0120FFF785
:100F900085FB0A2000F066FC6020FFF775FB4FF42C
:100FA0001C50FFF77BFB0820FFF76EFB40F60800A4
:100FB000FFF774FB4FF44070FFF766FB40F2091037
:100FC000FFF76CFB40F20130FFF75EFB47F60A606B
:100FD000FFF764FB40F20230FFF756FB40F204706B
:100FE000FFF75CFB40F20330FFF74EFB40F61110B9
:100FF000FFF754FB4FF44170FFF746FB4FF40450EA
:10100000FFF74CFB40F20530FFF73EFB41F20910C1
:10101000FFF744FB40F20630FFF736FB47F207408C
:10102000FFF73CFB40F20730FFF72EFB40F60E20A7
:10103000FFF734FB4FF44270FFF726FB40F6011038
:10104000FFF72CFB40F20930FFF71EFB2120FFF7D2
:1010500025FB1020FFF718FB1020FFF71FFB1120C6
:10106000FFF712FB40F20220FFF718FB1220FFF7F8
:101070000BFB4FF44070FFF711FB1320FFF704FB4D
:101080000720FFF70BFB0A2000F0ECFB4FF4807009
:10109000FFF7FAFA0020FFF701FB40F20110FFF71B
:1010A000F3FA0720FFF7FAFA4FF48170FFF7ECFA32
:1010B0000020FFF7F3FA40F20310FFF7E5FA0020F3
:1010C000FFF7ECFA4FF42070FFF7DEFA0020FFF78D
:1010D000E5FAC82000F0C6FB4FF48070FFF7D4FAA1
:1010E0004FF44C70FFF7DAFA40F20110FFF7CCFA38
:1010F00040F24720FFF7D2FA322000F0B3FB4FF462
:101100008170FFF7C1FA4DF2B010FFF7C7FA322035
:1011100000F0A8FB40F20310FFF7B6FA4FF480503E
:10112000FFF7BCFA4FF42070FFF7AEFA4FF44640D9
:10113000FFF7B4FAC82000F095FB0120FFF7A4FAEE
:101140004FF48070FFF7AAFA0220FFF79DFA4FF4E0
:101150000070FFF7A3FA0320FFF796FA41F2300080
:10116000FFF79CFA0920FFF78FFA0120FFF796FAA4
:101170000A20FFF789FA0820FFF790FA0C20FFF702
:1011800083FA0020FFF78AFA0D20FFF77DFA00208E
:10119000FFF784FA0E20FFF777FA3020FFF77EFA88
:1011A0002020FFF771FA0020FFF778FA2120FFF7DF
:1011B0006BFA0020FFF772FA2920FFF765FA522038
:1011C000FFF76CFA5020FFF75FFA0020FFF766FA8E
:1011D0005120FFF759FAEF20FFF760FA5220FFF78E
:1011E00053FA0020FFF75AFA5320FFF74DFA40F266
:1011F0003F10FFF753FA6120FFF746FA0020FFF790
:101200004DFA6A20FFF740FA0020FFF747FA8020E6
:10121000FFF73AFA0020FFF741FA8120FFF734FA8E
:101220000020FFF73BFA8220FFF72EFA5F20FFF73E
:1012300035FA9320FFF728FA40F20750FFF72EFA0D
:101240000720FFF721FA4FF48070FFF727FA3220CA
:1012500000F008FB2220FFF717FA0020FFF762F9E1
:101260004FF6FF70FFF73AF910BD0000180000209C
:10127000204C43442049443A25780D0A00000000E0
:1012800010B540F225510E4800F09CF890B10C4882
:1012900000F054F9C4B22146094800F054F900BFE7
:1012A0004021074800F081F80128F9D10548047071
:1012B000FFF7F8FA4021024800F062F810BD000084
:1012C000003801402800002010B586B004460121F6
:1012D0000420FFF7B5FB01218803FFF7B1FB0121D3
:1012E0000846FFF7ADFB4FF40070ADF81400032083
:1012F0008DF8160018208DF8170005A91E48FFF775
:1013000038F84FF48060ADF8140004208DF8170011
:1013100005A91948FFF72DF801940020ADF8080041
:10132000ADF80A00ADF80C00ADF810000C20ADF8D7
:101330000E0001A9114800F095F801210F4800F0B6
:1013400028F840210D4800F01BF8012240F22551F9
:101350000A4800F061F825208DF8000003208DF880
:1013600001008DF8020001208DF803006846FFF7A8
:1013700003FB06B010BD000000080140003801402A
:1013800001F40072B2F5007F00D100BFCA430280B1
:10139000704721B1828942F40052828104E082893F
:1013A0004DF6FF731A408281704702460020B1F566
:1013B000007F00D100BF13880B400BB1012000E07B
:1013C0000020704770B5024600240023002500204D
:1013D00040F66A16B14200D100BFC1F3421501F0D8
:1013E0001F03012606FA03F3012D02D1968933402B
:1013F00006E0022D02D1168A334001E0968A33407E
:101400000C12012606FA04F41688344013B10CB10C
:10141000012000E0002070BDF0B503460024002646
:101420000025002040F66A17B94200D100BF1846D7
:10143000C1F3421401F01F06012707FA06F5012C3B
:1014400001D10C3004E0022C01D1103000E0143046
:101450001AB107682F43076002E00768AF430760CF
:10146000F0BD00002DE9F04786B005460E46002489
:10147000A24600BFA1460027B08900B100BF2F4699
:101480002C8A4CF6FF700440F08804432C82AC890F
:101490004EF6F3100440B08831890843718908433F
:1014A0000443AC81AC8A4FF6FF400440B08904434A
:1014B000AC8201A8FFF7D4FA1F48874202D1DDF8B9
:1014C00010A001E0DDF80CA0A88900F4004040B1B4
:1014D0000AEBCA0000EB0A1031684900B0FBF1F8D2
:1014E00007E00AEBCA0000EB0A1031688900B0FB84
:1014F000F1F86420B8FBF0F004012009642101FB3D
:101500001089A88900F4004040B1322000EBC900E6
:10151000B0FBF1F000F00700044308E0322000EBDC
:1015200009106421B0FBF1F000F00F0004432C819E
:1015300006B0BDE8F0870000003801400146888809
:10154000C0F308007047C1F308028280704700BFF3
:10155000FEE700000FB4054B10B503A9044A02983A
:1015600000F018F810BC5DF814FB0000B11800087A
:101570002400002002E008C8121F08C1002AFAD186
:1015800070477047002001E001C1121F002AFBD103
:10159000704700002DE9FF4F8DB09B460F46044673
:1015A000002606E025280BD05A460F999047641C68
:1015B000761C20780028F5D111B03046BDE8F08FB8
:1015C0000025A8460122974900E0054314F8013F91
:1015D000203B02FA03F00842F7D120782E2817D1D9
:1015E00014F8010F45F004052A280ED06FF02F02E1
:1015F0002078A0F1300109290AD808EB880102EB14
:10160000410100EB0108641CF2E757F8048B641CED
:1016100020786C280DD004DC4C2812D06A2811D117
:1016200004E074280DD07A280CD10AE045F40015A6
:1016300007E0617845F48015814202D1641C05F50C
:101640008015641C2278692A45D008DC002AB3D0B2
:10165000582A67D0632A10D0642A08D13BE0702A48
:1016600065D0732A13D0752A5AD0782A5AD01046DA
:101670005A460F999047761CD1E017F8040B8DF865
:10168000000000208DF80100E946012003E057F832
:10169000049B4FF0FF3069074FF0000501D40AE0CA
:1016A0006D1C45450DDA8542FADB19F80510002955
:1016B000F6D106E06D1C8542FCDB19F80510002907
:1016C000F8D12E4404E019F8010B5A460F999047BF
:1016D0006D1EF8D2A3E00A200021CDE90801C5F370
:1016E000025002280BD001CFC11700290DDA4FF0AC
:1016F000000CD0EB0C006CEB01012D2308E0FF1D6A
:1017000027F00707F7E80201EFE72B0504D52B23A5
:101710008DF8283001233BE0EB0739D02023F7E791
:101720000A2000E010200021CDE9080107E0102088
:10173000002145F00405CDE908014FF00808C5F384
:10174000025002280FD001CF00214FF0000A2B07D2
:101750001FD5702A0DD0DDE908C38CF0100C5CEAAF
:10176000030C0CD015E0FF1D27F00707F7E8020176
:10177000EBE740228DF828204FF0010A0BE050EAF9
:10178000010306D030238DF828308DF8292002235C
:101790009A46582A04D024A20DF120090B9209E0A0
:1017A00026A2F9E7DDE90823FEF7F0FC0B9B9B5C22
:1017B00009F8013D50EA0102F4D1ADEB09002030F7
:1017C0000890680701D44FF001080899884502DDA8
:1017D000A8EB010000E000208046002506E00AA8F2
:1017E0005A46405D0F9990476D1C761C5545F6DBB7
:1017F00004E030205A460F999047761CB8F100015A
:10180000A8F10108F5DC05E019F8010B5A460F991B
:101810009047761C0899481E08900029F4DC641C47
:10182000C7E600000928010030313233343536373D
:10183000383961626364656600000000303132331C
:1018400034353637383941424344454600000000BC
:101850008AB0242101A8FEF78EFCFEF7EFFF00BF3F
:10186000FEE700000146114A12884A434FF0E02388
:101870005A6100229A611A46126942F001021A6105
:1018800000BF4FF0E022106900F001021AB100F42D
:101890008032002AF5D04FF0E022126922F00102D6
:1018A0004FF0E0231A6100229A6170472200002065
:1018B00070B504460D46E1B20548FFF744FE00BF8F
:1018C00080210348FFF771FD0028F9D0204670BD44
:1018D0000038014000BF00BF4820FFF765FA4FF411
:1018E000A060FFF781F8FEF7F3FE4FF41650FFF704
:1018F000EBFCFFF71FFBFEF7CDFDFEF707FF01E056
:10190000FFF7A6FFFCE73443101001344310100129
:10191000301900080000002028000000741500089D
:101920005819000828000020280400008415000829
:101930000000000001020304010203040607080975
:10194000020406080000FFFF000000000000000085
:0819500000000000000000008F
:0400000508000131BD
:00000001FF
