:020000040800F2
:100000003004002045010008910800086D04000834
:100010008D0800082F0200081B17000800000000D0
:10002000000000000000000000000000690E000851
:100030003302000800000000D50B00087D0F000807
:100040005F0100085F0100085F0100085F01000810
:100050005F0100085F0100085F0100085F01000800
:100060005F0100085F0100085F0100085F010008F0
:100070005F0100085F0100085F0100085F010008E0
:100080005F0100085F0100085F0100085F010008D0
:100090005F0100085F0100085F0100085F010008C0
:1000A0005F0100085F0100085F0100085F010008B0
:1000B0005F0100085F0100085F0100085F010008A0
:1000C0005F0100085F0100085F0100085F01000890
:1000D0005F010008591400085F0100085F01000873
:1000E0005F0100085F0100085F0100085F01000870
:1000F0005F0100085F0100085F0100085F01000860
:100100005F0100085F0100085F0100085F0100084F
:100110005F0100085F0100085F0100085F0100083F
:100120005F0100085F0100085F0100085F0100082F
:10013000DFF80CD000F04AF800480047851F00089F
:10014000300400200648804706480047FEE7FEE7E7
:10015000FEE7FEE7FEE7FEE7FEE7FEE7FEE7FEE777
:10016000BD0F0008310100082DE9F05F05460020B1
:1001700092469B4688460646814640241BE0284618
:1001800041464746224600F042F853465A46C01AB6
:10019000914110D311461846224600F029F82D1A35
:1001A00067EB01084F4622460120002100F020F8AD
:1001B00017EB00094E41201EA4F10104DFDC484684
:1001C00031462A464346BDE8F09F0000064C074DE5
:1001D00006E0E06840F0010394E807009847103417
:1001E000AC42F6D3FFF7A8FF883C0008A83C000803
:1001F000202A04DB203A00FA02F1002070479140E7
:10020000C2F1200320FA03F3194390407047202ADB
:1002100004DB203A21FA02F00021704721FA02F3B0
:10022000D040C2F12002914008431946704700BFF8
:10023000FEE7704751B18200A2F1C042126842F05D
:1002400001038200A2F1C042136009E08200A2F122
:10025000C0421268034B1A408300A3F1C0431A60E6
:1002600070470000FEFF0F00D0E901121143C26881
:100270001143026911434269114382691143C26902
:100280001143026A1143426A1143826A1143C26AEE
:100290001143026B114302689200A2F1C042116047
:1002A000816808290BD101688900A1F1C041096862
:1002B00041F0400201688900A1F1C0410A60416B30
:1002C0000968426B526841EA0211426B926841EA46
:1002D0000221426B928941EA0241426B128A41EA51
:1002E0000251426B127D41EA0261426B92691143F5
:1002F0000268521C9200A2F1C0421160C16AB1F5BD
:10030000804F1BD1816B0968826B526841EA0211F0
:10031000826B926841EA0221826B128A41EA0251A1
:10032000826B127D41EA0261826B9269114302681D
:100330009200A2F1C042C2F8041107E06FF07042CF
:1003400001688900A1F1C041C1F8042170472DE97D
:10035000F04102460025002600200023002400274B
:1003600091F803C00CF00F0591F803C00CF0100CCD
:10037000BCF1000F03D091F802C04CEA050591F8DA
:1003800000C0BCF1000F31D0146800202BE04FF00A
:10039000010C0CFA00F3B1F800C00CEA03069E420F
:1003A00020D183004FF00F0C0CFA03F7BC4305FA81
:1003B00003FC4CEA040491F803C0BCF1280F06D1F9
:1003C0004FF0010C0CFA00FCC2F814C00AE091F8DE
:1003D00003C0BCF1480F05D14FF0010C0CFA00FC32
:1003E000C2F810C0401C0828D1D31460B1F800C076
:1003F000BCF1FF0F34DD546800202EE000F1080C42
:100400004FF0010808FA0CF3B1F800C00CEA03063B
:100410009E4221D183004FF00F0C0CFA03F7BC432E
:1004200005FA03FC4CEA040491F803C0BCF1280F60
:1004300005D100F1080C08FA0CF8C2F8148091F804
:1004400003C0BCF1480F07D100F1080C4FF00108C0
:1004500008FA0CF8C2F81080401C0828CED354606B
:10046000BDE8F081416170470161704700BFFEE760
:1004700008B50121442000F0CFFB0120ADF80000B9
:1004800028208DF8030003208DF8020069460848F3
:10049000FFF75DFF1C20ADF8000048208DF8030039
:1004A00003208DF8020069460248FFF750FF08BD9F
:1004B000000801400018014070B506460F4840880A
:1004C000401E83B20D480088401E82B200210846BB
:1004D00000F072F800240CE0002504E0304600F043
:1004E000ABF9681C85B205484088A842F6DC601C60
:1004F00084B202480088A042EEDC70BD1A000020E1
:1005000000B50346B3B9012000F082F94FF48070C2
:1005100000F088F9032000F07BF941F2300000F090
:1005200081F94FF4C8700E494880F02008800020FF
:10053000887114E0012000F06BF9002000F072F9DE
:10054000032000F065F941F2380000F06BF9F0206B
:10055000034948804FF4C87008800120887100BDAD
:100560001A00002070B504460D4616462B4622465A
:100570002946204600F020F8304600F05DF970BDB5
:1005800010B501460023CA0AC1F3451401F01F0348
:10059000500340EA841040EA430010BD0549098831
:1005A00048104FF6FF7101EA00200249098840EA2D
:1005B000610070470008006C70B506460C46154691
:1005C0002E48807950BB4FF4047000F021F930467A
:1005D00000F028F940F2112000F01AF9284600F046
:1005E00021F940F2122000F013F9204600F01AF928
:1005F00040F2132000F00CF9184600F013F94FF404
:10060000007000F005F9304600F00CF940F20120CE
:1006100000F0FEF8204600F005F929E040F2122033
:1006200000F0F6F8304600F0FDF840F2132000F03C
:10063000EFF8284600F0F6F84FF4047000F0E8F800
:10064000204600F0EFF840F2112000F0E1F81846E3
:1006500000F0E8F840F2012000F0DAF8304600F04F
:10066000E1F84FF4007000F0D3F8204600F0DAF81B
:1006700040F2022000F0CCF870BD00001A0000200B
:100680002DE9F84F80460E4617461C46B3462046D5
:10069000E31704EB5373DB1021464FEAE47C04EBD1
:1006A0005C7C4FEAEC0CA4EBCC0CBCF1000F02D04C
:1006B0004FF0010C01E04FF0000C6344224604EBC4
:1006C000D27C4FEA6C0C03FB0CF3DBB20093A7F176
:1006D0002000C7B2002556E00C2C07D107EB4700DD
:1006E0002B4901EB800010F8059013E0102C05D188
:1006F000284800EB071010F805900BE0182C07D1E4
:1007000007EBC700244901EB800010F8059001E0D9
:10071000BDE8F88F4FF0000A2FE009F0800030B1FB
:100720001E48028831464046FFF71CFF07E00A9842
:1007300028B91B48028831464046FFF713FF4FEAAD
:1007400049604FEA1069701C86B216484088B04272
:1007500000DCDDE7A6EB0B00A0420AD15E4608F103
:1007600001001FFA80F80F480088404500DCCFE701
:1007700006E00AF1010000F0FF0ABAF1080FCCDB35
:1007800000BF681CC5B200988542A5DB00BFBFE76B
:10079000982000080C250008FC2A000816000020FC
:1007A000180000201A0000202DE9F84704460D46E5
:1007B00090469946DDE9096704F0FF0A08EB04005A
:1007C0001FFA80F809EB05001FFA80F916E044458E
:1007D00002DB5446A81985B24D4500DB14E0002029
:1007E00000903A78334629462046FFF749FF3046C5
:1007F00006EBD07104EB61018CB27F1C38787E2847
:1008000002DC38782028E2DA00BFBDE8F887000073
:1008100001124900024A11800106C90D118070477A
:10082000FE07006C01124900024A11800106C90D41
:10083000118070470008006C30B50546002428463A
:10084000FFF79EFE0446C4F34F20024908800C8047
:1008500030BD00000008006C08B50121102000F038
:10086000DBF9FF20ADF8000010208DF80300032015
:100870008DF8020069460448FFF769FDFF21024830
:10088000FFF7F2FD08BD00000010014000BFFEE7C9
:10089000704700001CB511A103C9CDE90001082073
:1008A00000F096FA05226946302000F01BF9052277
:1008B0006946102000F0C4F8002406E01DF804008A
:1008C000A52800D003E0601CC4B2052CF6DB00BFF5
:1008D000052C01D001201CBD0020FCE7A5A5A5A585
:1008E000A500000000B587B00121A82000F094F910
:1008F0004FF40050ADF8180010208DF81B000320B5
:100900008DF81A0006A93148FFF721FD4FF4005178
:100910002E48FFF7A9FD4FF48050ADF8180006A946
:100920002B48FFF714FD4FF480512948FFF79CFD39
:100930004FF44070ADF8180006A92648FFF707FDF0
:100940004FF440712348FFF78DFD0820ADF81800E3
:1009500028208DF81B0006A91F48FFF7F8FC082186
:100960001D48FFF77FFD00F0D1F900211B4800F082
:1009700043FA0020ADF804004FF48270ADF8060091
:100980000020ADF80800ADF80A00ADF80C004FF4F7
:100990000070ADF80E001820ADF810000020ADF882
:1009A00012000720ADF8140001A90C4800F03EFA2F
:1009B00001210A4800F020FA0020094908600120BE
:1009C0000849C1F8A40107B000BD000000200140A3
:1009D000000C0140001C01400014014000380040A0
:1009E000A08123420080234210B5002011490860F5
:1009F000052211492A2000F075F80121212000F07C
:100A00008FF80121222000F08BF82821252000F00A
:100A100087F82021312000F083F80F21262000F0F4
:100A20007FF80F21202000F07BF801200349C1F856
:100A3000A00110BDA0812342833C00080080234216
:100A40002DE9F04107460D46164600200A49086088
:100A5000384600F0A1F98046002405E0FF2000F0B0
:100A60009BF92855601CC4B2B442F7DB012002494F
:100A700008604046BDE8F081A481234270B5044679
:100A8000002007490860204600F086F9FF2000F0AA
:100A900083F9054601200349C1F8A401284670BD29
:100AA000A48123420080234270B50446102000F048
:100AB0008FF90720FFF7E2FF05462946272000F0BF
:100AC0002FF805F0400050B1202221466120FFF7A9
:100AD000B7FFFF21E22000F023F8002070BD0120C5
:100AE000FCE700002DE9F04107460C4615460020C2
:100AF0000A490860384600F04FF98046002605E0B4
:100B000014F8010B00F048F9701CC6B2AE42F7DBD6
:100B10000120024908604046BDE8F081A4812342DB
:100B200070B505460C46002007490860284600F0CD
:100B300033F90646204600F02FF901200349C1F899
:100B4000A401304670BD0000A481234200802342EE
:100B500070B5002100230F22C47804B3154C24681B
:100B600004F4E064C4F5E064210AC1F10403CA405E
:100B7000447804FA03F184781440214309010E4CAF
:100B80000678A155047804F01F050124AC400578CF
:100B90006D11AD0005F1E025C5F8004109E00478CC
:100BA00004F01F050124AC40044D0678761145F889
:100BB000264070BD0CED00E000E400E080E100E0C4
:100BC00002490143024A1160704700000000FA0523
:100BD0000CED00E07047000029B1064A526902435B
:100BE000044B5A6104E0034A52698243014B5A6143
:100BF000704700000010024029B1064AD269024342
:100C0000044BDA6104E0034AD2698243014BDA61A2
:100C1000704700000010024029B1064A9269024361
:100C2000044B9A6104E0034A92698243014B9A6142
:100C3000704700000010024030B50021002200245F
:100C400000232D4D6D6805F00C0121B1042905D05C
:100C5000082923D105E0294D056022E0274D0560D4
:100C60001FE0254D6D6805F47012234D6D6805F485
:100C70008034022505EB92421CB9214D5543056095
:100C80000BE01D4D6D6805F400351DB11C4D55433D
:100C9000056002E0194D5543056002E0174D0560FF
:100CA00000BF00BF144D6D6805F0F0010909154D36
:100CB0006B5C0568DD4045600F4D6D6805F4E061D3
:100CC000090A104D6B5C4568DD4085600A4D6D6812
:100CD00005F46051C90A0B4D6B5C4568DD40C56089
:100CE000054D6D6805F44041890B074D6B5CC56887
:100CF000B5FBF3F5056130BD0010024000127A002B
:100D000000093D00020000201200002000B587B05D
:100D100001210820FFF780FF01218803FFF76CFF06
:100D20004FF46040ADF8180018208DF81B00032028
:100D30008DF81A0006A91648FFF709FB0020ADF848
:100D400004004FF48270ADF806000020ADF80800F2
:100D50000220ADF80A000120ADF80C004002ADF809
:100D60000E003820ADF810000020ADF8120007206A
:100D7000ADF8140001A9074800F058F80121054812
:100D800000F03AF8FF2000F007F807B000BD0000BF
:100D9000000C01400038004010B5044600BF02219D
:100DA0000A4800F035F80028F9D02146074800F03D
:100DB0003BF800BF0121054800F02AF80028F9D0CF
:100DC000024800F02EF8C0B210BD0000003800400C
:100DD00010B50446074800884FF6C771084005491A
:100DE000088008460088204308800121014800F05F
:100DF00003F810BD0038004021B1028842F04002E3
:100E0000028004E002884FF6BF731A4002807047E8
:100E10000246002013890B400BB1012000E00020A6
:100E200070470146888970478181704710B500225C
:100E3000028802F441520B884C8823438C88234358
:100E4000CC8823430C8923434C8923438C89234337
:100E5000CC8923431A430280838B4FF2FF742340D3
:100E600083830B8A038210BD704710B500F002F82F
:100E700010BD00000CB500200190009033480068C0
:100E800040F480303149086000BF3048006800F409
:100E9000003000900198401C0190009818B901980A
:100EA000B0F5A06FF1D12948006800F4003010B10E
:100EB0000120009001E0002000900098012843D11B
:100EC0002348006840F01000214908600846006887
:100ED00020F0030008600846006840F00200086047
:100EE0001A48406819494860084640684860084602
:100EF000406840F4806048600846406820F47C10F8
:100F000048600846406840F4E810486008460068B9
:100F100040F08070086000BF0C48006800F000706E
:100F20000028F9D00948406820F0030007494860CC
:100F30000846406840F00200486000BF034840682F
:100F400000F00C000828F9D10CBD00000010024090
:100F500000200240042808D14FF0E021096941F047
:100F600004014FF0E022116107E04FF0E021096930
:100F700021F004014FF0E02211617047704700003A
:100F800010B504466FF00400FFF7E4FFE11704EB2F
:100F90005171C1F3C701074A11701046007800EB88
:100FA0004001C1EBC0104FF6FF7101EAC0000249D9
:100FB000088010BD220000202400002010B5134836
:100FC000006840F001001149086008464068104977
:100FD00008400E494860084600680E4908400B4921
:100FE00008600846006820F48020086008464068D1
:100FF00020F4FE0048604FF41F008860FFF735FFC3
:101000004FF000600449086010BD0000001002406D
:101010000000FFF8FFFFF6FE08ED00E000B59DB010
:1010200001210802FFF7D8FD012007900020089059
:101030000F20099000200A900B900C900D90152025
:1010400000900190052002900020039004900590EC
:10105000069006200E9000200F9010901020119006
:101060000020129014901390159016904FF4805019
:101070001790002018904FF48040199000201A908B
:1010800007A81B90CDF870D00EA8FFF7EDF801214E
:101090000620FFF7CFF81DB000BD000008B5012104
:1010A0004FF4B070FFF7B8FD4CF23370ADF80000AC
:1010B00018208DF8030003208DF8020069461048BF
:1010C000FFF745F94FF68070ADF8000018208DF855
:1010D000030003208DF8020069460A48FFF737F93C
:1010E00041F20100ADF8000018208DF80300032044
:1010F0008DF8020069460448FFF729F908BD000091
:1011000000140140001801400020014010B5FFF715
:10111000C5FFFFF783FF322000F0FCFE0020FFF741
:1011200077FBFFF73BFAC749888008468188C6A04D
:1011300000F0F6FA0020FFF76BFB0020FFF768FBDA
:101140000A2000F0E7FE0020FFF762FB0020FFF717
:101150005FFB0020FFF75CFB0020FFF759FBA4209A
:10116000FFF756FB0120FFF75DFB0A2000F0D2FEDF
:101170006020FFF74DFB4FF41C50FFF753FB082096
:10118000FFF746FB40F60800FFF74CFB4FF44070BA
:10119000FFF73EFB40F20910FFF744FB40F201303D
:1011A000FFF736FB47F60A60FFF73CFB40F20230E0
:1011B000FFF72EFB40F20470FFF734FB40F20330E0
:1011C000FFF726FB40F61110FFF72CFB4FF44170A0
:1011D000FFF71EFB4FF40450FFF724FB40F20530ED
:1011E000FFF716FB41F20910FFF71CFB40F2063037
:1011F000FFF70EFB47F20740FFF714FB40F2073002
:10120000FFF706FB40F60E20FFF70CFB4FF4427091
:10121000FFF7FEFA40F60110FFF704FB40F2093039
:10122000FFF7F6FA2120FFF7FDFA1020FFF7F0FA9A
:101230001020FFF7F7FA1120FFF7EAFA40F2022038
:10124000FFF7F0FA1220FFF7E3FA4FF44070FFF7D0
:10125000E9FA1320FFF7DCFA0720FFF7E3FA0A2088
:1012600000F058FE4FF48070FFF7D2FA0020FFF72D
:10127000D9FA40F20110FFF7CBFA0720FFF7D2FAB4
:101280004FF48170FFF7C4FA0020FFF7CBFA40F269
:101290000310FFF7BDFA0020FFF7C4FA4FF42070E7
:1012A000FFF7B6FA0020FFF7BDFAC82000F032FEC3
:1012B0004FF48070FFF7ACFA4FF44C70FFF7B2FABE
:1012C00040F20110FFF7A4FA40F24720FFF7AAFA14
:1012D000322000F01FFE4FF48170FFF799FA4DF2B3
:1012E000B010FFF79FFA322000F014FE40F2031016
:1012F000FFF78EFA4FF48050FFF794FA4FF4207006
:10130000FFF786FA4FF44640FFF78CFAC82000F04A
:1013100001FE0120FFF77CFA4FF48070FFF782FA9C
:101320000220FFF775FA4FF40070FFF77BFA0320F5
:10133000FFF76EFA41F23000FFF774FA0920FFF769
:1013400067FA0120FFF76EFA0A20FFF761FA08201A
:10135000FFF768FA0C20FFF75BFA0020FFF762FA4C
:101360000D20FFF755FA0020FFF75CFA0E20FFF77B
:101370004FFA3020FFF756FA2020FFF749FA0020F5
:10138000FFF750FA2120FFF743FA0020FFF74AFA4F
:101390002920FFF73DFA5220FFF744FA5020FFF7CB
:1013A00037FA0020FFF73EFA5120FFF731FAEF201D
:1013B000FFF738FA5220FFF72BFA0020FFF732FA36
:1013C0005320FFF725FA40F23F10FFF72BFA612078
:1013D000FFF71EFA0020FFF725FA6A20FFF718FA38
:1013E0000020FFF71FFA8020FFF712FA0020FFF716
:1013F00019FA8120FFF70CFA0020FFF713FA822078
:10140000FFF706FA5F20FFF70DFA9320FFF700FAC7
:1014100040F20750FFF706FA0720FFF7F9F94FF4FB
:101420008070FFF7FFF9322000F074FD2220FFF7F3
:10143000EFF90020FFF764F84FF6FF70FFF73CF874
:1014400010BD00001A000020204C43442049443ABB
:1014500025780D0A0000000010B540F225510C4817
:1014600000F096F870B10A4800F04EF9C4B2214677
:10147000074800F04EF900BF4021054800F07BF816
:101480000128F9D14021024800F060F810BD0000A9
:101490000038014010B586B0044601210420FFF752
:1014A000BBFB01218803FFF7B7FB01210846FFF7CB
:1014B000B3FB4FF40070ADF8140003208DF8160054
:1014C00018208DF8170005A91E48FEF740FF4FF4BD
:1014D0008060ADF8140004208DF8170005A91948A4
:1014E000FEF735FF01940020ADF80800ADF80A00C2
:1014F000ADF80C00ADF810000C20ADF80E0001A9FD
:10150000114800F095F801210F4800F028F840211B
:101510000D4800F01BF8012240F225510A4800F066
:1015200061F825208DF8000003208DF801008DF86A
:10153000020001208DF803006846FFF709FB06B0A2
:1015400010BD0000000801400038014001F40072A5
:10155000B2F5007F00D100BFCA430280704721B1BD
:10156000828942F40052828104E082894DF6FF7341
:101570001A408281704702460020B1F5007F00D1F9
:1015800000BF13880B400BB1012000E00020704722
:1015900070B50246002400230025002040F66A169C
:1015A000B14200D100BFC1F3421501F01F03012673
:1015B00006FA03F3012D02D19689334006E0022D8D
:1015C00002D1168A334001E0968A33400C1201267C
:1015D00006FA04F41688344013B10CB1012000E07F
:1015E000002070BDF0B50346002400260025002031
:1015F00040F66A17B94200D100BF1846C1F3421441
:1016000001F01F06012707FA06F5012C01D10C3065
:1016100004E0022C01D1103000E014301AB1076848
:101620002F43076002E00768AF430760F0BD00008A
:101630002DE9F04786B005460E460024A24600BFBD
:10164000A1460027B08900B100BF2F462C8A4CF676
:10165000FF700440F08804432C82AC894EF6F310EE
:101660000440B08831890843718908430443AC8140
:10167000AC8A4FF6FF400440B0890443AC8201A815
:10168000FFF7DAFA1F48874202D1DDF810A001E027
:10169000DDF80CA0A88900F4004040B10AEBCA00B4
:1016A00000EB0A1031684900B0FBF1F807E00AEBE3
:1016B000CA0000EB0A1031688900B0FBF1F8642021
:1016C000B8FBF0F004012009642101FB1089A8890E
:1016D00000F4004040B1322000EBC900B0FBF1F053
:1016E00000F00700044308E0322000EB09106421F9
:1016F000B0FBF1F000F00F0004432C8106B0BDE810
:10170000F08700000038014001468888C0F30800D7
:101710007047C1F308028280704700BFFEE70000F7
:101720000FB4054B10B503A9044A029800F018F84D
:1017300010BC5DF814FB0000611F000828000020A9
:1017400002E008C8121F08C1002AFAD1704770478A
:10175000002001E001C1121F002AFBD170470000E8
:101760002DE9FF4F8DB09B460F460446002606E04C
:1017700025280BD05A460F999047641C761C207878
:101780000028F5D111B03046BDE8F08F0025A846FD
:101790000122974900E0054314F8013F203B02FA7B
:1017A00003F00842F7D120782E2817D114F8010F42
:1017B00045F004052A280ED06FF02F022078A0F102
:1017C000300109290AD808EB880102EB410100EB3E
:1017D0000108641CF2E757F8048B641C20786C281D
:1017E0000DD004DC4C2812D06A2811D104E07428F2
:1017F0000DD07A280CD10AE045F4001507E0617895
:1018000045F48015814202D1641C05F58015641CE5
:101810002278692A45D008DC002AB3D0582A67D03C
:10182000632A10D0642A08D13BE0702A65D0732A5D
:1018300013D0752A5AD0782A5AD010465A460F9992
:101840009047761CD1E017F8040B8DF800000020BB
:101850008DF80100E946012003E057F8049B4FF0A2
:10186000FF3069074FF0000501D40AE06D1C4545C3
:101870000DDA8542FADB19F805100029F6D106E0E9
:101880006D1C8542FCDB19F805100029F8D12E44A7
:1018900004E019F8010B5A460F9990476D1EF8D2D3
:1018A000A3E00A200021CDE90801C5F30250022877
:1018B0000BD001CFC11700290DDA4FF0000CD0EB8F
:1018C0000C006CEB01012D2308E0FF1D27F007073A
:1018D000F7E80201EFE72B0504D52B238DF828301C
:1018E00001233BE0EB0739D02023F7E70A2000E093
:1018F00010200021CDE9080107E01020002145F06B
:101900000405CDE908014FF00808C5F3025002288C
:101910000FD001CF00214FF0000A2B071FD5702AEE
:101920000DD0DDE908C38CF0100C5CEA030C0CD080
:1019300015E0FF1D27F00707F7E80201EBE740225B
:101940008DF828204FF0010A0BE050EA010306D081
:1019500030238DF828308DF8292002239A46582A02
:1019600004D024A20DF120090B9209E026A2F9E788
:10197000DDE90823FEF7F8FB0B9B9B5C09F8013DB2
:1019800050EA0102F4D1ADEB09002030089068075D
:1019900001D44FF001080899884502DDA8EB010049
:1019A00000E000208046002506E00AA85A46405D77
:1019B0000F9990476D1C761C5545F6DB04E03020EE
:1019C0005A460F999047761CB8F10001A8F101081A
:1019D000F5DC05E019F8010B5A460F999047761C83
:1019E0000899481E08900029F4DC641CC7E6000032
:1019F00009280100303132333435363738396162E5
:101A000063646566000000003031323334353637A8
:101A100038394142434445460000000008B50121E1
:101A20000820FFF7F9F84020ADF8000010208DF8ED
:101A3000030003208DF8020069460448FEF787FC86
:101A400040210248FEF710FD08BD0000000C0140D7
:101A500096B00025032700BF00BF00BF30244FF021
:101A600059084FF056094FF0330A8DF80C4000200A
:101A70008DF80D00FAA01021CDE90010FD48438833
:101A800002888C210A20FEF78FFEFBA01021CDE9F1
:101A90000010F84843880288A0210A20FEF784FE3F
:101AA000FAA01021CDE90010F24843880288A02155
:101AB0009620FEF779FEFAA01021CDE90010ED483E
:101AC00043880288B4210A20FEF76EFEEFA01021A1
:101AD000CDE90010E74843880288B4210846FEF7A4
:101AE00063FEF5A01021CDE90010E248438802888A
:101AF000C8210A20FEF758FEE4A01021CDE900100D
:101B0000DC4843880288C821BE20FEF74DFEFEF760
:101B10006BFFF8E104A8FEF7C7FF00287ED18DF81F
:101B2000300004A81021CDE90010D2484388028873
:101B3000A0219620FEF738FE9DF81000504529DCC4
:101B40009DF81000061BBD1B2819C0B28DF834008B
:101B500000208DF854009DF83400404543D09DF896
:101B6000340048453FD00DA81021CDE90010C148F0
:101B700043880288B4210846FEF716FE03A8102108
:101B8000CDE90010BB4843880288C821BE20FEF77B
:101B90000BFE28E09DF81000061BF51B2819C0B2AB
:101BA0008DF8340000208DF854009DF83400404535
:101BB00019D09DF83400484515D003A81021CDE96F
:101BC0000010AC4843880288B4210846FEF7ECFDBB
:101BD0000DA81021CDE90010A64843880288C8212D
:101BE000BE20FEF7E1FD9DF8100039281CD1002031
:101BF000B7490860B749C1F88401B54908310860A0
:101C00000120091D0860091D08600020091D0860E9
:101C1000091D0860B049C1F8980100E05EE14FF489
:101C2000487000F077F95CE19DF81000382818D171
:101C30000020A7490860A749C1F88401A4490831D8
:101C40000860091D0860091D0860091D0860091D5C
:101C50000860A149C1F898014FF4487000F05AF9A2
:101C60003FE19DF8100037281AD1002098490860FC
:101C70009849C1F884019649083108600120091D7E
:101C80000860091D0860091D0860091D0860002022
:101C90009149C1F898014FF4487000F03BF920E1F8
:101CA0009DF8100036281AD10020894908600120CB
:101CB0008849C1F884010020854908310860091D60
:101CC0000860091D0860091D0860091D0860824937
:101CD000C1F898014FF4487000F01CF901E19DF83B
:101CE000100035281CD1002079490860012079496D
:101CF000C1F884010020764908310860091D086098
:101D00000120091D08600020091D0860091D0860E8
:101D10007149C1F898014FF4487000F0FBF8E0E019
:101D20009DF8100034281BD101206949086000206B
:101D30006849C1F884016649083108600120091D1D
:101D40000860091D08600020091D0860091D086061
:101D50006149C1F898014FF4487000F0DBF8C0E029
:101D60009DF8100033281BD10020594908605949BB
:101D7000C1F88401564908310860091D0860012036
:101D8000091D0860091D08600020091D0860012068
:101D90005149C1F898014FF4487000F0BBF8A0E039
:101DA0009DF8100032281CD100204949086049499B
:101DB000C1F8840101204649083108600020091D4E
:101DC0000860091D08600120091D08600020091D28
:101DD00008604149C1F898014FF4487000F09AF842
:101DE0007FE09DF8100031281BD1012038490860A0
:101DF00000203849C1F884013549083108600120C4
:101E0000091D0860091D0860091D0860091D08609A
:101E100000203149C1F898014FF4487000F07AF879
:101E20005FE09DF8100030285BD100202849086051
:101E30002849C1F88401264908310860091D086055
:101E4000091D0860091D08600120091D08600020A7
:101E50002149C1F898014FF4487000F05BF840E068
:101E6000546172676574204E756D6265723A2033F5
:101E7000000000001A000020446574656374656406
:101E8000204E756D6265723A00000000202020200F
:101E900020202020202020202020202000000000C2
:101EA0004D6973732D73656564696E67204E756D3A
:101EB0006265723A000000004578636573732D73A4
:101EC000656564696E67204E756D6265723A0000E3
:101ED000800122420000224200802142012000F0C5
:101EE00019F809480088401C0749088008460088FE
:101EF000B0F57A7F07D10020088004480068C0430D
:101F00000349C1F89C0105E6000000209C01224223
:101F1000000022420146114A12884A434FF0E02352
:101F20005A6100229A611A46126942F001021A614E
:101F300000BF4FF0E022106900F001021AB100F476
:101F40008032002AF5D04FF0E022126922F001021F
:101F50004FF0E0231A6100229A61704724000020AC
:101F600070B504460D46E1B20548FFF7D2FB00BF4D
:101F700080210348FFF7FFFA0028F9D0204670BD02
:101F8000003801401CB500BF00BF4820FEF7F8FF35
:101F90004FF4A060FEF714FEFEF75EFCFFF73EFD77
:101FA0004FF41650FFF776FAFFF7B0F8FEF760FA35
:101FB000FEF798FC00202349088023A01021CDE9DA
:101FC00000102848438802880A210846FEF7ECFBE7
:101FD00025A01021CDE900102248438802881E2147
:101FE0000A20FEF7E1FB23A01021CDE900101D48D7
:101FF0004388028832210A20FEF7D6FB4FF478404E
:10200000104908800AE01FA01021CDE900101548F2
:102010004388028832218C20FEF7C6FBFEF73AFC8B
:102020000028F0D11AA01021CDE900100D484388F6
:10203000028832218C20FEF7B7FB01E0FFF708FD94
:10204000FCE70000160000204D6973732D73656571
:1020500064696E6720416C61726D20537973746599
:102060006D0000001A0000204C692052756F7765E2
:10207000690000004E524632344C303120537461B6
:10208000747573004572726F72202020000000008A
:102090005375636365737300000000000000000067
:1020A00000000000000000003F40000000000000B1
:1020B00000003000400030004000000009000BC06C
:1020C0003D000BC03D00090018C024407FE02240C5
:1020D00031800000180024C01B000D8032400180B8
:1020E00003801C4027401C80074000401000600017
:1020F00000000000000000000000000000001F8041
:10210000204040200000402020401F8000000000B0
:10211000090006001F8006000900000004000400FA
:102120003F80040004000000001000600000000078
:10213000000000000400040004000400040000008B
:10214000000000400000000000000000002001C06E
:1021500006003800400000001F8020402040204042
:102160001F800000000010403FC000400000000041
:1021700018C0214022402440184000001080204018
:10218000244024401B80000002000D0011003FC0CD
:10219000014000003C802440244024402380000073
:1021A0001F80244024403440038000003000200081
:1021B00027C03800200000001B8024402440244019
:1021C0001B8000001C0022C0224022401F80000013
:1021D00000000000084000000000000000000000B7
:1021E0000460000000000000000004000A0011006C
:1021F0002080404009000900090009000900000092
:1022000000004040208011000A0004001800200057
:1022100023402400180000001F8020402740294050
:102220001F400000004007C039000F0001C00040FF
:1022300020403FC0244024401B8000001F802040DD
:10224000204020403080000020403FC020402040FF
:102250001F80000020403FC024402E4030C00000BE
:1022600020403FC024402E00300000000F001080AE
:10227000204022403380020020403FC00400040080
:102280003FC02040204020403FC020402040000070
:102290000060202020203FC02000200020403FC0C0
:1022A00024400B0030C0204020403FC02040004070
:1022B000004000C03FC03C0003C03C003FC00000E5
:1022C00020403FC00C4023003FC020001F80204022
:1022D000204020401F80000020403FC024402400B8
:1022E000180000001F802140214020E01FA00000B6
:1022F00020403FC02440260019C0004018C02440A0
:102300002440224031800000300020403FC0204067
:102310003000000020003F80004000403F8020004F
:1023200020003E0001C0070038002000380007C030
:102330003C0007C038000000204039C0060039C00A
:10234000204000002000384007C038402000000036
:10235000304021C02640384020C00000000000006E
:102360007FE0402040200000000070000C0003804F
:10237000004000000000402040207FE000000000FE
:1023800000002000400020000000000000100010AD
:1023900000100010001000100000000040000000BD
:1023A00000000000000002800540054003C000401E
:1023B00020003FC004400440038000000000038070
:1023C0000440044006400000000003800440244014
:1023D0003FC000400000038005400540034000006E
:1023E000000004401FC0244024402000000002E000
:1023F000055005500650042020403FC00440040012
:1024000003C000400000044027C00040000000005E
:1024100000100010041027E00000000020403FC022
:102420000140070004C00440204020403FC000405D
:102430000040000007C0040007C0040003C0000003
:10244000044007C00440040003C0004000000380B3
:102450000440044003800000041007F004500440CE
:1024600003800000000003800440045007F00010C7
:10247000044007C0024004000400000000000640C1
:102480000540054004C00000000004001F80044017
:1024900000400000040007800040044007C00040E6
:1024A0000400070004C0018006000400060001C00B
:1024B000070001C006000000044006C0010006C07D
:1024C000044000000410071004E00180060004002E
:1024D0000000044005C00640044000000000000069
:1024E00004007BE040200000000000000000FFF03E
:1024F00000000000000040207BE00400000000001D
:10250000400080004000200020004000000000004B
:1025100000000000000000000000000000000000BB
:1025200000001FCC000C00000000000000000800AC
:10253000300060000800300060000000022003FC52
:102540001E20022003FC1E200220000000000E18A6
:1025500011043FFF10840C78000000000F0010846D
:102560000F3800C0077818840078000000780F84C6
:1025700010C411240E9800E40084000808006800CC
:1025800070000000000000000000000000000000DB
:10259000000007E01818200440020000000040027C
:1025A0002004181807E0000000000000024002406C
:1025B00001800FF001800240024000000080008096
:1025C00000800FF800800080008000000001000DF6
:1025D000000E00000000000000000000000000806D
:1025E0000080008000800080008000800000000CDF
:1025F000000C0000000000000000000000000006C9
:10260000001800600180060018002000000007F09C
:10261000080810041004080807F00000000008046F
:1026200008041FFC000400040000000000000E0C61
:1026300010141024104411840E0C000000000C181B
:1026400010041104110412880C700000000000E056
:102650000320042408241FFC0024000000001F980D
:10266000108411041104108810700000000007F09D
:1026700008881104110418880070000000001C0074
:10268000100010FC13001C001000000000000E38A9
:1026900011441084108411440E380000000007001B
:1026A000088C10441044088807F000000000000067
:1026B0000000030C030C00000000000000000000FC
:1026C0000001010600000000000000000000008082
:1026D000014002200410080810040000022002201B
:1026E000022002200220022002200000000010042C
:1026F00008080410022001400080000000000E00C5
:102700001200100C106C10800F00000003E00C1879
:1027100013E4142417C4082807D000000004003C68
:1027200003C41C40074000E4001C000410041FFC0C
:102730001104110411040E880070000003E00C184D
:1027400010041004100410081C10000010041FFCDA
:10275000100410041004080807F0000010041FFC07
:102760001104110417C410040818000010041FFC01
:102770001104110017C010000800000003E00C183D
:102780001004100410441C780040000010041FFCCA
:1027900010840080008010841FFC100400001004CE
:1027A00010041FFC100410040000000000030001CE
:1027B000100110011FFE10001000000010041FFC8B
:1027C000110403801464181C1004000010041FFC82
:1027D0001004000400040004000C000010041FFC9E
:1027E0001F0000FC1F001FFC1004000010041FFC51
:1027F0000C04030000E010181FFC100007F008088C
:10280000100410041004080807F0000010041FFC56
:1028100010841080108010800F00000007F008184E
:1028200010241024101C080A07F2000010041FFCDA
:102830001104110011C011300E0C000400000E1C18
:1028400011041084108410441C380000180010007B
:1028500010041FFC100410001800000010001FF8E6
:1028600010040004000410041FF8100010001E00E3
:1028700011E0001C007013801C0010001FC0103CF1
:1028800000E01F0000E0103C1FC000001004180C06
:10289000163401C001C01634180C100410001C00BE
:1028A000130400FC13041C00100000000804101C9A
:1028B0001064108413041C041018000000000000B1
:1028C00000007FFE40024002400200000000300095
:1028D0000C0003800060001C0003000000004002A8
:1028E000400240027FFE00000000000000000000E7
:1028F00020004000400040002000000000010001D6
:102900000001000100010001000100010000400081
:1029100040002000000000000000000000000098BF
:10292000012401440144014400FC000410001FFC88
:10293000008801040104008800700000000000709D
:1029400000880104010401040088000000000070F8
:1029500000880104010411081FFC0004000000F8B5
:10296000014401440144014400C800000000010486
:1029700001040FFC1104110411001800000000D61E
:1029800001290129012901C90106000010041FFCC9
:10299000008401000100010400FC000400000104A7
:1029A000190419FC000400040000000000000003EA
:1029B00000010101190119FE0000000010041FFCB4
:1029C0000024004001B4010C0104000000001004C8
:1029D00010041FFC0004000400000000010401FCBE
:1029E0000104010001FC0104010000FC010401FCE0
:1029F000008401000100010400FC0004000000F854
:102A0000010401040104010400F80000010101FFB8
:102A100000850104010400880070000000000070BF
:102A2000008801040104010501FF00010104010403
:102A300001FC00840104010001800000000000CCC2
:102A40000124012401240124019800000000010058
:102A5000010007F80104010400000000010001F872
:102A6000000400040004010801FC000401000180CE
:102A70000170000C001001600180010001F0010CE8
:102A8000003001C00030010C01F001000000010421
:102A9000018C00740170018C0104000001010181AE
:102AA0000171000E00180160018001000000018426
:102AB000010C013401440184010C000000000000FD
:102AC0000000000001003EFC400240020000000047
:102AD00000000000FFFF00000000000000004002B6
:102AE00040023EFC01000000000000000000600009
:102AF0008000800040004000200020000000000016
:102B000000000000000000000000000000000000C5
:102B100000000000000000000000000000000000B5
:102B20000000000000000000000000000000000F96
:102B300080380FFE380F80380000000000000000D1
:102B4000000000000000000000000100000600007E
:102B50000C00003800003100000600000C000038B6
:102B600000003000000000000000000061800067ED
:102B7000F807F98000618000618000618000618059
:102B80000067F807F9800061800000000000000085
:102B9000000001C0E003E0F00630080418081FFF41
:102BA000FE040E080787F00381E00000000000002B
:102BB00001F000060C00040408060C7001F9C000C6
:102BC0000E00003BE000EC18070808040C18000396
:102BD000E00000000001E00007F003F818041C0802
:102BE00004170807E1D003C0E00023B0003C080050
:102BF000200800001000000000000001000031006B
:102C0000003200001C000000000000000000000076
:102C100000000000000000000000000000000000B4
:102C20000000000000000000000000007F0001FF25
:102C3000C00780F00C001810000420000200000003
:102C40000000002000021000040C00180780F001B2
:102C5000FFC0007F00000000000000000000000036
:102C60000000000000000000420000660000660056
:102C7000003C0000180003FFC0001800003C0000EA
:102C80006600006600004200000000000800000826
:102C90000000080000080000080001FFC000080054
:102CA0000008000008000008000008000000000004
:102CB000000100003100003200001C000000000094
:102CC0000000000000000000000000000000000004
:102CD00000000000080000080000080000080000D4
:102CE00008000008000008000008000008000008B4
:102CF0000000000000000000000000003800003864
:102D0000000038000000000000000000000000008B
:102D100000000000000000000000000000060000AD
:102D20001C000070000180000E0000380000C00090
:102D30000700001C00003000000000000000000040
:102D40007F8001FFE0038070060018040008040083
:102D50000806001803807001FFE0007F800000007B
:102D60000000000000000100080100080100080345
:102D7000FFF807FFF8000008000008000008000046
:102D80000000000000000001C03802C05804009894
:102D9000040118040218040418061C1803F818018A
:102DA000E0F800000000000000000001C0E003C0E7
:102DB000F004000804080804080806180803F418BA
:102DC00001E7F00001E0000000000000000000004A
:102DD0000300000D000011000061000081080301E4
:102DE0000807FFF80FFFF8000108000108000000C5
:102DF0000000000000E007FCD006080806100806E6
:102E00001008061008061838060FF00607C0000064
:102E100000000000000000003F8001FFE00384305C
:102E200002081804100804100804100807181003FA
:102E30000FF00007C000000000000000000003C009
:102E4000000700000600000600F80607F806180054
:102E500006E000070000060000000000000000017E
:102E6000E1E003F7F0063410041808041808040C15
:102E700008040C0806161803F3F001C1E000000076
:102E800000000000F80003FC3003063804020804C8
:102E900002080402080404100308F001FFC0007FC8
:102EA0000000000000000000000000000000000022
:102EB000000000007038007038007038000000001A
:102EC0000000000000000000000000000000000002
:102ED0000000000000000000301A00301C0000005C
:102EE00000000000000000000000000000000000E2
:102EF00000000008000014000022000041000080D3
:102F000080010040020020040010080008000000BA
:102F1000000000002100002100002100002100002D
:102F200021000021000021000021000021000021DB
:102F3000000000000000000000000800080400106D
:102F400002002001004000808000410000220000BB
:102F5000140000080000000000000003C00004C0CE
:102F600000040000080038080F380808380810006E
:102F70000C300007E00003C000000000000000006B
:102F80003F8000FFE0038070020F1006708804C0CD
:102F900088048308047F8802C09003012000FE405B
:102FA0000000080000180001F8003E0801C20007F8
:102FB000020007E20000FE00001FC80001F8000048
:102FC0003800000804000807FFF807FFF8040808A5
:102FD00004080804080804080806180803F418017F
:102FE000E7F00001E0000000000000003F8001FF6A
:102FF000E0038070020018040008040008040008C0
:103000000400100600200780C0000000040008072C
:10301000FFF807FFF8040008040008040008040093
:103020001802001003807001FFE0007F80000000A4
:1030300004000807FFF807FFF8040808040808045C
:103040000808040808043E080400080600180100E7
:103050006000000004000807FFF807FFF8040808F4
:10306000040800040800040800043E0006000006EE
:103070000000018000000000000000003F8001FF10
:10308000E003807006001804000804020804020827
:103090000203F00783F000020000020004000807AA
:1030A000FFF807FFF80408080008000008000008FF
:1030B0000000080004080807FFF807FFF8040008EC
:1030C00000000000000004000804000804000807D5
:1030D000FFF807FFF80400080400080400080000D7
:1030E00000000000000000000006000007000001D2
:1030F00004000104000104000307FFFE07FFFC04B5
:10310000000004000004000004000807FFF807FFA7
:10311000F8040C08001800003E0004C7800503C82E
:103120000600F8040038040018000008040008072E
:10313000FFF807FFF804000800000800000800007E
:1031400008000008000008000018000060000000EF
:1031500004000807FFF807800807FC00007FC00094
:1031600003F80007C000780007800807FFF807FF92
:10317000F804000804000807FFF807000803C0006F
:1031800000E000003800001E000007000001C0043D
:1031900000F007FFF8040000000000007F8001FF3E
:1031A000E0038070060018040008040008060018F8
:1031B00003003001FFE0007F8000000004000807EA
:1031C000FFF807FFF80404080404000404000404E2
:1031D00000040400060C0003F80001F000000000E9
:1031E000000000007F8001FFE0038070060088047B
:1031F00000880400C806003C03003E01FFE6007F93
:103200008400000004000807FFF807FFF80408081E
:10321000040800040C00040F00040BC00610F003A7
:10322000F03801E00800000800000001E0F803F0B9
:1032300030063010041808041808040C08040C08A0
:103240000206180207F00781E00000000180000676
:10325000000004000004000004000807FFF807FF56
:10326000F8040008040000040000060000018000CB
:1032700004000007FFE007FFF0040018000008004A
:10328000000800000800000800000804001007FF04
:10329000E004000004000006000007E00007FE0054
:1032A000041FE00001F80000380001E0043E0007C0
:1032B000C00006000004000004000007E00007FF53
:1032C000C0041FF80007C007F80007FF80043FF89C
:1032D0000007C004F800070000040000000000041C
:1032E000000806001807C07805F1C8003E00001F5E
:1032F000800463E80780F806001804000800000056
:1033000004000006000007800007E008047C0800B5
:103310001FF80007F800180804E00807000006007E
:10332000000400000000000100080600380400F856
:103330000403E8040F08047C0805F00807C0080728
:103340000018040060000000000000000000000001
:10335000000000000000003FFFFE200002200002ED
:1033600020000220000220000200000000000000F7
:10337000000008000007000000C000003800000640
:10338000000001C000003000000E0000010000003D
:1033900000000000000020000220000220000220A7
:1033A00000022000023FFFFE0000000000000000BD
:1033B0000000000000000000000000000008000005
:1033C0001000003000002000003000001000000855
:1033D00000000000000000000000010000010000EB
:1033E00001000001000001000001000001000001D7
:1033F00000000100000100000100000100000000C9
:10340000000000000020000020000010000010005C
:1034100000000000000000000000000000000000AC
:103420000000000000F00019F8001B18002208003E
:103430002608002408002410003FF8001FF80000B0
:103440000800001800000004000007FFF80FFFF05C
:10345000001818001008002008002008003018008C
:103460001FF0000FC00000000000000007C0001F98
:10347000F0001830002008002008002008003C0858
:10348000001C1000006000000000000000000000B0
:1034900007C0001FF0003818002008002008002096
:1034A0000804101007FFF80FFFF0000010000000E4
:1034B0000000000000000007C0001FF000123000F4
:1034C0002218002208002208003208001E10000EF8
:1034D000200000000000000020000020080020085C
:1034E00001FFF803FFF8062008042008042008075D
:1034F000200003000000000000000000000E000E8D
:103500006E001FF30031B10020B10020B1003191F5
:10351000001F13002E1E00200E00300000000004CB
:10352000000807FFF80FFFF8001008002000002037
:1035300000002008003FF8001FF80000080000000D
:1035400000000000000000200800200800200806FD
:103550003FF8063FF80000080000080000080000DF
:103560000000000000000000000000000300000355
:10357000002001002001002003063FFE063FFC0062
:10358000000000000000000000000004000807FF29
:10359000F80FFFF8000188000300002FC00038F882
:1035A0000020380020080000080000000000000093
:1035B000000004000804000804000807FFF80FFFDB
:1035C000F8000008000008000008000000000000EB
:1035D000002008003FF8003FF8001008002000001D
:1035E0003FF8003FF8001008002000003FF8003FBF
:1035F000F8000008000000002008003FF8003FF835
:10360000001008001000002000002008003FF80013
:103610001FF80000080000000000000007C0000FB5
:10362000F0001830003008002008002008003008A2
:10363000001830000FF00007C0000000000000007C
:103640002001003FFF003FFF001011002009002073
:1036500008002008003038001FF0000FC0000000F4
:103660000000000007C0001FF0003818002008000C
:103670002008002009001011001FFF003FFF00007C
:1036800001000000002008002008002008003FF88A
:10369000003FF80008080010080020080020000083
:1036A0003000003000000000000000000000000CAE
:1036B00078001E1800330800230800210800218824
:1036C0000021980030F00038600000000000000089
:1036D000200000200000200000FFF003FFF8002081
:1036E0000800200800200800003000000000000052
:1036F000000000002000003FF0007FF800001800EC
:103700000008000008002010003FF8007FF00000D3
:1037100010000000000000002000003000003C000D
:10372000003F800023F0000078000070002380003C
:103730003C00003000002000002000003C00003F62
:10374000E00023F80000E0002700003E00003FE01A
:103750000021F80001E0003E000020000000000011
:103760002008002008003838003E68002780000349
:10377000C8002CF80038380020180020080000008D
:10378000000000002000003003003C01003F8300E7
:1037900023EC000070002380003C0000200000208B
:1037A0000000000000000000000000380800203881
:1037B0000020F80023E8002F88003E0800380800A9
:1037C0002018000070000000000000000000000051
:1037D000000000000000000008000014001FF7FCBB
:1037E0003000062000020000000000000000000081
:1037F0000000000000000000000000000000FFFFCB
:10380000FF000000000000000000000000000000B9
:103810000000000000002000023000061FF7FC003E
:10382000140000080000000000000000000000007C
:1038300000000000000000180000600000400000D0
:1038400040000020000010000008000004000004F8
:1038500000000C0000100000C6D50000000000E0D1
:10386000380000783C00003C7800003C70C0001C30
:10387000E1E01FFFFFF0001CE3000E1CE7C0079C07
:10388000E78003DCEF0003DCEE0001DCFC60009C61
:10389000F9F07FFFFFF80000000001C00E0001FFFB
:1038A000FF0001C00E0001C00E0001C00E0001FFAC
:1038B000FE0001C00E0001C00E0001C00E0001FF9D
:1038C000FE0001C00E0001C00E0000000000D6D0B6
:1038D0000000000000070000000780000007000053
:1038E0000007000000070000000701801FFFFFE045
:1038F0001FFFFFE01E0701C01E0701C01E0701C019
:103900001E0701C01E0701C01E0701C01FFFFFC028
:103910001FFFFFC01E0701C01C0701800007000039
:10392000000700000007000000070000000700007B
:10393000000700000007000000070000000700006B
:1039400000000000BFC60000000000000780003C2F
:1039500007C001FC07803FE0078039C1C78001C074
:10396000E78001C0F78001C0778001DE77807FFEAD
:10397000078001C0078003C3C78003E1E78003F825
:10398000F78007FCE7F00FDE67F80FDC07F81FC0D1
:10399000FF801DDFE78039CC078071C0078061C0E0
:1039A000078001C0078001C0078001E0078001E0B7
:1039B000078001C0070000000000BCBC0000000040
:1039C0000380300003C03C0003C03C0003C038004B
:1039D00003C0380003C0386003F838F07FFFFFF001
:1039E00003C0380003C0380003C0380003DC39C00E
:1039F00003FFFFE007E383C03FC183C07FC1C380F3
:103A00003BC1C78003C0EF0003C0EF0003C07E00CE
:103A100003C07C0003C07C0003C0FE003BC3EF80FA
:103A20003F8787F80FBF03F8077800E00000000029
:103A3000C4EA0000000000C0000001F0000001E046
:103A4000000003C000C003C001E007FFFFF0070350
:103A5000C0000E03C0001E03C0003C03C30073037C
:103A6000C78063FFFFC00383C0000383C0000383DC
:103A7000C0000383C0000383C0600383C0F07FFFE6
:103A8000FFF80003C0000003C0000003C0000003F3
:103A9000C0000003C0000003C0000003C00000031A
:103AA000C00000000000D4C20000000000000000C0
:103AB00000E0070000FFFF8000F0078000F0070033
:103AC00000F0070000F0070000F0070000FFFF0013
:103AD00000FFFF0000F0070000F0070000F0070003
:103AE00000F0070000E0070000FFFF0000E0070013
:103AF00000E0070000E0070001E0070001C0070048
:103B000001C00700038007000780F7000F007F0057
:103B10001E001F0038001C0000000000C8D5000077
:103B20000000000000000300030003FFFF8003FF0C
:103B3000FF800380070003800700038007000380E5
:103B4000070003800700038007000380070003804D
:103B5000070003FFFF0003800700038007000380C6
:103B6000070003800700038007000380070003802D
:103B70000700038007000380070003FFFF000380A6
:103B80000700038007000380070003000000000017
:103B90000000D0C700000000000000000380070004
:103BA00003FFFF80038007000380070003800700F6
:103BB00003FFFF00038007000380070003FFFF00EF
:103BC00003FFFF00038707000387C00003C78100CE
:103BD00003C7838007FFFFC0070780000F0780002F
:103BE0001E0786001C078F003BFFFF8070078000C8
:103BF00000078000000780E0000781F07FFFFFF8EA
:103C00000000000000000000C6DA0000000006000E
:103C10000000079E0000079E7FF0079E7FF0079F31
:103C2000F8F03FFFF8F01F9E78F0079E78F0079EAF
:103C300078F007FE7FF0079E78F0079E78F0079EE9
:103C400070F007FE70F0079E70F0079E7FF0079FF0
:103C5000FFF03FFFF0F0119070F003DCF0F003DEB6
:103C6000E0F0078FE0F00F0FE0F00E07C0F01C034C
:103C70008FF0380F03E0201C01C000000000344327
:103C80001010013443101001A83C0008000000206F
:103C90002C00000040170008D43C00082C00002035
:103CA000040400005017000800000000000001029A
:103CB00003040102030406070809020406080000C1
:103CC000FFFF0000000000000000000000000000F6
:043CD00000000000F0
:0400000508000131BD
:00000001FF
